{
  "_format": "hh-sol-artifact-1",
  "contractName": "Tethry",
  "sourceName": "contracts/Tethry.sol",
  "abi": [
    {
      "inputs": [
        {
          "internalType": "address",
          "name": "_tokenAddress",
          "type": "address"
        },
        {
          "internalType": "uint256",
          "name": "_initialFeePercentage",
          "type": "uint256"
        }
      ],
      "stateMutability": "nonpayable",
      "type": "constructor"
    },
    {
      "inputs": [],
      "name": "CardAlreadyExists",
      "type": "error"
    },
    {
      "inputs": [],
      "name": "FeeExceedsMaxLimit",
      "type": "error"
    },
    {
      "inputs": [],
      "name": "GaslessTransfer__NotEnoughAllowance",
      "type": "error"
    },
    {
      "inputs": [],
      "name": "GaslessTransfer__NotEnoughBalance",
      "type": "error"
    },
    {
      "inputs": [],
      "name": "GaslessTransfer__PermitFailed",
      "type": "error"
    },
    {
      "inputs": [],
      "name": "GaslessTransfer__TransferFailed",
      "type": "error"
    },
    {
      "inputs": [],
      "name": "InsufficientBalance",
      "type": "error"
    },
    {
      "inputs": [],
      "name": "InvalidAmount",
      "type": "error"
    },
    {
      "inputs": [],
      "name": "NoActiveCard",
      "type": "error"
    },
    {
      "inputs": [
        {
          "internalType": "address",
          "name": "owner",
          "type": "address"
        }
      ],
      "name": "OwnableInvalidOwner",
      "type": "error"
    },
    {
      "inputs": [
        {
          "internalType": "address",
          "name": "account",
          "type": "address"
        }
      ],
      "name": "OwnableUnauthorizedAccount",
      "type": "error"
    },
    {
      "inputs": [],
      "name": "TransferFailed",
      "type": "error"
    },
    {
      "anonymous": false,
      "inputs": [
        {
          "indexed": true,
          "internalType": "address",
          "name": "user",
          "type": "address"
        }
      ],
      "name": "CardCreated",
      "type": "event"
    },
    {
      "anonymous": false,
      "inputs": [
        {
          "indexed": true,
          "internalType": "address",
          "name": "user",
          "type": "address"
        },
        {
          "indexed": false,
          "internalType": "uint256",
          "name": "balance",
          "type": "uint256"
        }
      ],
      "name": "CardDeleted",
      "type": "event"
    },
    {
      "anonymous": false,
      "inputs": [
        {
          "indexed": true,
          "internalType": "address",
          "name": "user",
          "type": "address"
        },
        {
          "indexed": false,
          "internalType": "uint256",
          "name": "amount",
          "type": "uint256"
        }
      ],
      "name": "CardFunded",
      "type": "event"
    },
    {
      "anonymous": false,
      "inputs": [
        {
          "indexed": false,
          "internalType": "uint256",
          "name": "newFeeDenominator",
          "type": "uint256"
        }
      ],
      "name": "FeeDenominatorUpdated",
      "type": "event"
    },
    {
      "anonymous": false,
      "inputs": [
        {
          "indexed": false,
          "internalType": "uint256",
          "name": "newFeePercentage",
          "type": "uint256"
        }
      ],
      "name": "FeeUpdated",
      "type": "event"
    },
    {
      "anonymous": false,
      "inputs": [
        {
          "indexed": true,
          "internalType": "address",
          "name": "sender",
          "type": "address"
        },
        {
          "indexed": true,
          "internalType": "address",
          "name": "receiver",
          "type": "address"
        },
        {
          "indexed": false,
          "internalType": "uint256",
          "name": "amount",
          "type": "uint256"
        },
        {
          "indexed": false,
          "internalType": "uint256",
          "name": "fee",
          "type": "uint256"
        }
      ],
      "name": "FundsTransferred",
      "type": "event"
    },
    {
      "anonymous": false,
      "inputs": [
        {
          "indexed": true,
          "internalType": "address",
          "name": "previousOwner",
          "type": "address"
        },
        {
          "indexed": true,
          "internalType": "address",
          "name": "newOwner",
          "type": "address"
        }
      ],
      "name": "OwnershipTransferred",
      "type": "event"
    },
    {
      "anonymous": false,
      "inputs": [
        {
          "indexed": true,
          "internalType": "address",
          "name": "recipient",
          "type": "address"
        },
        {
          "indexed": false,
          "internalType": "uint256",
          "name": "amount",
          "type": "uint256"
        }
      ],
      "name": "ProfitsWithdrawn",
      "type": "event"
    },
    {
      "inputs": [],
      "name": "FEE_DENOMINATOR",
      "outputs": [
        {
          "internalType": "uint256",
          "name": "",
          "type": "uint256"
        }
      ],
      "stateMutability": "view",
      "type": "function"
    },
    {
      "inputs": [],
      "name": "MAX_FEE_PERCENTAGE",
      "outputs": [
        {
          "internalType": "uint256",
          "name": "",
          "type": "uint256"
        }
      ],
      "stateMutability": "view",
      "type": "function"
    },
    {
      "inputs": [
        {
          "internalType": "address",
          "name": "",
          "type": "address"
        }
      ],
      "name": "cardBalances",
      "outputs": [
        {
          "internalType": "uint256",
          "name": "",
          "type": "uint256"
        }
      ],
      "stateMutability": "view",
      "type": "function"
    },
    {
      "inputs": [
        {
          "internalType": "address",
          "name": "",
          "type": "address"
        }
      ],
      "name": "cardExists",
      "outputs": [
        {
          "internalType": "bool",
          "name": "",
          "type": "bool"
        }
      ],
      "stateMutability": "view",
      "type": "function"
    },
    {
      "inputs": [
        {
          "internalType": "address",
          "name": "_sender",
          "type": "address"
        },
        {
          "internalType": "address",
          "name": "_receiver",
          "type": "address"
        },
        {
          "internalType": "uint256",
          "name": "_amount",
          "type": "uint256"
        }
      ],
      "name": "cardTransfer",
      "outputs": [],
      "stateMutability": "nonpayable",
      "type": "function"
    },
    {
      "inputs": [
        {
          "internalType": "address",
          "name": "_user",
          "type": "address"
        }
      ],
      "name": "createCard",
      "outputs": [],
      "stateMutability": "nonpayable",
      "type": "function"
    },
    {
      "inputs": [
        {
          "internalType": "address",
          "name": "_user",
          "type": "address"
        }
      ],
      "name": "deleteCard",
      "outputs": [],
      "stateMutability": "nonpayable",
      "type": "function"
    },
    {
      "inputs": [],
      "name": "feePercentage",
      "outputs": [
        {
          "internalType": "uint256",
          "name": "",
          "type": "uint256"
        }
      ],
      "stateMutability": "view",
      "type": "function"
    },
    {
      "inputs": [
        {
          "internalType": "address",
          "name": "_owner",
          "type": "address"
        },
        {
          "internalType": "uint256",
          "name": "_value",
          "type": "uint256"
        },
        {
          "internalType": "uint256",
          "name": "_deadline",
          "type": "uint256"
        },
        {
          "internalType": "uint8",
          "name": "_v",
          "type": "uint8"
        },
        {
          "internalType": "bytes32",
          "name": "_r",
          "type": "bytes32"
        },
        {
          "internalType": "bytes32",
          "name": "_s",
          "type": "bytes32"
        }
      ],
      "name": "fundCard",
      "outputs": [],
      "stateMutability": "nonpayable",
      "type": "function"
    },
    {
      "inputs": [
        {
          "internalType": "address",
          "name": "_user",
          "type": "address"
        }
      ],
      "name": "getCardBalance",
      "outputs": [
        {
          "internalType": "uint256",
          "name": "",
          "type": "uint256"
        }
      ],
      "stateMutability": "view",
      "type": "function"
    },
    {
      "inputs": [],
      "name": "owner",
      "outputs": [
        {
          "internalType": "address",
          "name": "",
          "type": "address"
        }
      ],
      "stateMutability": "view",
      "type": "function"
    },
    {
      "inputs": [],
      "name": "renounceOwnership",
      "outputs": [],
      "stateMutability": "nonpayable",
      "type": "function"
    },
    {
      "inputs": [],
      "name": "token",
      "outputs": [
        {
          "internalType": "contract IERC20Permit",
          "name": "",
          "type": "address"
        }
      ],
      "stateMutability": "view",
      "type": "function"
    },
    {
      "inputs": [],
      "name": "totalProfits",
      "outputs": [
        {
          "internalType": "uint256",
          "name": "",
          "type": "uint256"
        }
      ],
      "stateMutability": "view",
      "type": "function"
    },
    {
      "inputs": [
        {
          "internalType": "address",
          "name": "_owner",
          "type": "address"
        },
        {
          "internalType": "uint256",
          "name": "_value",
          "type": "uint256"
        },
        {
          "internalType": "uint256",
          "name": "_deadline",
          "type": "uint256"
        },
        {
          "internalType": "uint8",
          "name": "_v",
          "type": "uint8"
        },
        {
          "internalType": "bytes32",
          "name": "_r",
          "type": "bytes32"
        },
        {
          "internalType": "bytes32",
          "name": "_s",
          "type": "bytes32"
        },
        {
          "internalType": "address",
          "name": "_to",
          "type": "address"
        },
        {
          "internalType": "uint256",
          "name": "_charge",
          "type": "uint256"
        }
      ],
      "name": "transfer",
      "outputs": [],
      "stateMutability": "nonpayable",
      "type": "function"
    },
    {
      "inputs": [
        {
          "internalType": "address",
          "name": "newOwner",
          "type": "address"
        }
      ],
      "name": "transferOwnership",
      "outputs": [],
      "stateMutability": "nonpayable",
      "type": "function"
    },
    {
      "inputs": [
        {
          "internalType": "uint256",
          "name": "_newFeeDenominator",
          "type": "uint256"
        }
      ],
      "name": "updateFeeDenominator",
      "outputs": [],
      "stateMutability": "nonpayable",
      "type": "function"
    },
    {
      "inputs": [
        {
          "internalType": "uint256",
          "name": "_newFeePercentage",
          "type": "uint256"
        }
      ],
      "name": "updateFeePercentage",
      "outputs": [],
      "stateMutability": "nonpayable",
      "type": "function"
    },
    {
      "inputs": [
        {
          "internalType": "address",
          "name": "_recipient",
          "type": "address"
        }
      ],
      "name": "withdrawProfits",
      "outputs": [],
      "stateMutability": "nonpayable",
      "type": "function"
    }
  ],
  "bytecode": "0x60a0604052606460025534801561001557600080fd5b506040516122a73803806122a783398181016040528101906100379190610301565b33600073ffffffffffffffffffffffffffffffffffffffff168173ffffffffffffffffffffffffffffffffffffffff16036100aa5760006040517f1e4fbdf70000000000000000000000000000000000000000000000000000000081526004016100a19190610350565b60405180910390fd5b6100b9816101a460201b60201c565b5060018081905550600073ffffffffffffffffffffffffffffffffffffffff168273ffffffffffffffffffffffffffffffffffffffff1603610127576040517f90b8ec1800000000000000000000000000000000000000000000000000000000815260040160405180910390fd5b6005811115610162576040517febbeff1800000000000000000000000000000000000000000000000000000000815260040160405180910390fd5b8173ffffffffffffffffffffffffffffffffffffffff1660808173ffffffffffffffffffffffffffffffffffffffff168152505080600681905550505061036b565b60008060009054906101000a900473ffffffffffffffffffffffffffffffffffffffff169050816000806101000a81548173ffffffffffffffffffffffffffffffffffffffff021916908373ffffffffffffffffffffffffffffffffffffffff1602179055508173ffffffffffffffffffffffffffffffffffffffff168173ffffffffffffffffffffffffffffffffffffffff167f8be0079c531659141344cd1fd0a4f28419497f9722a3daafe3b4186f6b6457e060405160405180910390a35050565b600080fd5b600073ffffffffffffffffffffffffffffffffffffffff82169050919050565b60006102988261026d565b9050919050565b6102a88161028d565b81146102b357600080fd5b50565b6000815190506102c58161029f565b92915050565b6000819050919050565b6102de816102cb565b81146102e957600080fd5b50565b6000815190506102fb816102d5565b92915050565b6000806040838503121561031857610317610268565b5b6000610326858286016102b6565b9250506020610337858286016102ec565b9150509250929050565b61034a8161028d565b82525050565b60006020820190506103656000830184610341565b92915050565b608051611ee26103c5600039600081816103ca015281816105ce0152818161066501528181610a6501528181610b2d01528181610c0801528181610ce101528181610fbf0152818161137b01526115520152611ee26000f3fe608060405234801561001057600080fd5b50600436106101205760003560e01c8063a001ecdd116100ad578063ebddfdd511610071578063ebddfdd5146102b9578063ef4d3b00146102e9578063f076a84614610305578063f2fde38b14610335578063fc0c546a1461035157610120565b8063a001ecdd14610213578063bc4925be14610231578063bd998cb314610261578063d73792a91461027f578063ebc81efd1461029d57610120565b80636cad3fb0116100f45780636cad3fb014610197578063715018a6146101b35780637236171d146101bd5780637e11cf98146101d95780638da5cb5b146101f557610120565b8062362a77146101255780633e73b21e146101415780634c9483fe1461015d578063558e44d314610179575b600080fd5b61013f600480360381019061013a9190611782565b61036f565b005b61015b60048036038101906101569190611854565b6104ff565b005b61017760048036038101906101729190611782565b6107f6565b005b610181610965565b60405161018e91906118f0565b60405180910390f35b6101b160048036038101906101ac919061190b565b61096a565b005b6101bb6109ee565b005b6101d760048036038101906101d2919061190b565b610a02565b005b6101f360048036038101906101ee9190611938565b610a4b565b005b6101fd610dcb565b60405161020a91906119fd565b60405180910390f35b61021b610df4565b60405161022891906118f0565b60405180910390f35b61024b60048036038101906102469190611782565b610dfa565b6040516102589190611a33565b60405180910390f35b610269610e1a565b60405161027691906118f0565b60405180910390f35b610287610e20565b60405161029491906118f0565b60405180910390f35b6102b760048036038101906102b29190611a4e565b610e26565b005b6102d360048036038101906102ce9190611782565b611128565b6040516102e091906118f0565b60405180910390f35b61030360048036038101906102fe9190611782565b611171565b005b61031f600480360381019061031a9190611782565b6114b2565b60405161032c91906118f0565b60405180910390f35b61034f600480360381019061034a9190611782565b6114ca565b005b610359611550565b6040516103669190611b00565b60405180910390f35b610377611574565b61037f6115fb565b60006005549050600081036103c0576040517f2c5211c600000000000000000000000000000000000000000000000000000000815260040160405180910390fd5b60006005819055507f000000000000000000000000000000000000000000000000000000000000000073ffffffffffffffffffffffffffffffffffffffff1663a9059cbb83836040518363ffffffff1660e01b8152600401610423929190611b1b565b6020604051808303816000875af1158015610442573d6000803e3d6000fd5b505050506040513d601f19601f820116820180604052508101906104669190611b70565b6104a5576040517f08c379a000000000000000000000000000000000000000000000000000000000815260040161049c90611bfa565b60405180910390fd5b8173ffffffffffffffffffffffffffffffffffffffff167f124fd12bda4dcb813885ca782fb4ea9350d4f752b1a881cadf8742d8f128bb8e826040516104eb91906118f0565b60405180910390a2506104fc61164a565b50565b610507611574565b61050f6115fb565b60008503610549576040517f2c5211c600000000000000000000000000000000000000000000000000000000815260040160405180910390fd5b600460008773ffffffffffffffffffffffffffffffffffffffff1673ffffffffffffffffffffffffffffffffffffffff16815260200190815260200160002060009054906101000a900460ff166105cc576040517f868751af00000000000000000000000000000000000000000000000000000000815260040160405180910390fd5b7f000000000000000000000000000000000000000000000000000000000000000073ffffffffffffffffffffffffffffffffffffffff1663d505accf873088888888886040518863ffffffff1660e01b81526004016106319796959493929190611c38565b600060405180830381600087803b15801561064b57600080fd5b505af115801561065f573d6000803e3d6000fd5b505050507f000000000000000000000000000000000000000000000000000000000000000073ffffffffffffffffffffffffffffffffffffffff166323b872dd8730886040518463ffffffff1660e01b81526004016106c093929190611ca7565b6020604051808303816000875af11580156106df573d6000803e3d6000fd5b505050506040513d601f19601f820116820180604052508101906107039190611b70565b610742576040517f08c379a000000000000000000000000000000000000000000000000000000000815260040161073990611bfa565b60405180910390fd5b84600360008873ffffffffffffffffffffffffffffffffffffffff1673ffffffffffffffffffffffffffffffffffffffff16815260200190815260200160002060008282546107919190611d0d565b925050819055508573ffffffffffffffffffffffffffffffffffffffff167fafaef655b25cf8c083d9cf53b50ea7e438142e34298a147a619c7c38259aeb54866040516107de91906118f0565b60405180910390a26107ee61164a565b505050505050565b6107fe611574565b600460008273ffffffffffffffffffffffffffffffffffffffff1673ffffffffffffffffffffffffffffffffffffffff16815260200190815260200160002060009054906101000a900460ff1615610882576040517f8db034d300000000000000000000000000000000000000000000000000000000815260040160405180910390fd5b6000600360008373ffffffffffffffffffffffffffffffffffffffff1673ffffffffffffffffffffffffffffffffffffffff168152602001908152602001600020819055506001600460008373ffffffffffffffffffffffffffffffffffffffff1673ffffffffffffffffffffffffffffffffffffffff16815260200190815260200160002060006101000a81548160ff0219169083151502179055508073ffffffffffffffffffffffffffffffffffffffff167f5a88fac48723245815c0b404c9689ef9de8251085a0232d064c93226aa190fb760405160405180910390a250565b600581565b610972611574565b60058111156109ad576040517febbeff1800000000000000000000000000000000000000000000000000000000815260040160405180910390fd5b806006819055507f8c4d35e54a3f2ef1134138fd8ea3daee6a3c89e10d2665996babdf70261e2c76816040516109e391906118f0565b60405180910390a150565b6109f6611574565b610a006000611653565b565b610a0a611574565b806002819055507fc6f9dcbaffc6fd3b2f6ba59b252bca957a5cdb2504222241cbe6d7329c44162f81604051610a4091906118f0565b60405180910390a150565b610a53611574565b60008188610a619190611d0d565b90507f000000000000000000000000000000000000000000000000000000000000000073ffffffffffffffffffffffffffffffffffffffff1663d505accf8a30848b8b8b8b6040518863ffffffff1660e01b8152600401610ac89796959493929190611c38565b600060405180830381600087803b158015610ae257600080fd5b505af1925050508015610af3575060015b610b29576040517fc0778b4300000000000000000000000000000000000000000000000000000000815260040160405180910390fd5b60007f000000000000000000000000000000000000000000000000000000000000000073ffffffffffffffffffffffffffffffffffffffff166323b872dd8b30856040518463ffffffff1660e01b8152600401610b8893929190611ca7565b6020604051808303816000875af1158015610ba7573d6000803e3d6000fd5b505050506040513d601f19601f82011682018060405250810190610bcb9190611b70565b905080610c04576040517fd46faa8000000000000000000000000000000000000000000000000000000000815260040160405180910390fd5b60007f000000000000000000000000000000000000000000000000000000000000000073ffffffffffffffffffffffffffffffffffffffff1663a9059cbb868c6040518363ffffffff1660e01b8152600401610c61929190611b1b565b6020604051808303816000875af1158015610c80573d6000803e3d6000fd5b505050506040513d601f19601f82011682018060405250810190610ca49190611b70565b905080610cdd576040517fd46faa8000000000000000000000000000000000000000000000000000000000815260040160405180910390fd5b60007f000000000000000000000000000000000000000000000000000000000000000073ffffffffffffffffffffffffffffffffffffffff1663a9059cbb610d23610dcb565b876040518363ffffffff1660e01b8152600401610d41929190611b1b565b6020604051808303816000875af1158015610d60573d6000803e3d6000fd5b505050506040513d601f19601f82011682018060405250810190610d849190611b70565b905080610dbd576040517fd46faa8000000000000000000000000000000000000000000000000000000000815260040160405180910390fd5b505050505050505050505050565b60008060009054906101000a900473ffffffffffffffffffffffffffffffffffffffff16905090565b60065481565b60046020528060005260406000206000915054906101000a900460ff1681565b60055481565b60025481565b610e2e611574565b610e366115fb565b600460008473ffffffffffffffffffffffffffffffffffffffff1673ffffffffffffffffffffffffffffffffffffffff16815260200190815260200160002060009054906101000a900460ff16610eb9576040517f868751af00000000000000000000000000000000000000000000000000000000815260040160405180910390fd5b600060025460065483610ecc9190611d41565b610ed69190611db2565b90508082610ee49190611d0d565b600360008673ffffffffffffffffffffffffffffffffffffffff1673ffffffffffffffffffffffffffffffffffffffff168152602001908152602001600020541015610f5c576040517ff4d678b800000000000000000000000000000000000000000000000000000000815260040160405180910390fd5b8082610f689190611d0d565b600360008673ffffffffffffffffffffffffffffffffffffffff1673ffffffffffffffffffffffffffffffffffffffff1681526020019081526020016000206000828254610fb69190611de3565b925050819055507f000000000000000000000000000000000000000000000000000000000000000073ffffffffffffffffffffffffffffffffffffffff1663a9059cbb84846040518363ffffffff1660e01b8152600401611018929190611b1b565b6020604051808303816000875af1158015611037573d6000803e3d6000fd5b505050506040513d601f19601f8201168201806040525081019061105b9190611b70565b61109a576040517f08c379a000000000000000000000000000000000000000000000000000000000815260040161109190611bfa565b60405180910390fd5b80600560008282546110ac9190611d0d565b925050819055508273ffffffffffffffffffffffffffffffffffffffff168473ffffffffffffffffffffffffffffffffffffffff167fbd8ba14b7834d50f4d38587359558952e7e638273e9c027fbfa7d41b364e98258484604051611112929190611e17565b60405180910390a35061112361164a565b505050565b6000600360008373ffffffffffffffffffffffffffffffffffffffff1673ffffffffffffffffffffffffffffffffffffffff168152602001908152602001600020549050919050565b611179611574565b6111816115fb565b600460008273ffffffffffffffffffffffffffffffffffffffff1673ffffffffffffffffffffffffffffffffffffffff16815260200190815260200160002060009054906101000a900460ff16158061121957506000600360008373ffffffffffffffffffffffffffffffffffffffff1673ffffffffffffffffffffffffffffffffffffffff16815260200190815260200160002054145b15611250576040517f868751af00000000000000000000000000000000000000000000000000000000815260040160405180910390fd5b6000600360008373ffffffffffffffffffffffffffffffffffffffff1673ffffffffffffffffffffffffffffffffffffffff1681526020019081526020016000205490506000600254600654836112a79190611d41565b6112b19190611db2565b9050600081836112c19190611de3565b905081600560008282546112d59190611d0d565b925050819055506000600360008673ffffffffffffffffffffffffffffffffffffffff1673ffffffffffffffffffffffffffffffffffffffff168152602001908152602001600020819055506000600460008673ffffffffffffffffffffffffffffffffffffffff1673ffffffffffffffffffffffffffffffffffffffff16815260200190815260200160002060006101000a81548160ff0219169083151502179055507f000000000000000000000000000000000000000000000000000000000000000073ffffffffffffffffffffffffffffffffffffffff1663a9059cbb85836040518363ffffffff1660e01b81526004016113d4929190611b1b565b6020604051808303816000875af11580156113f3573d6000803e3d6000fd5b505050506040513d601f19601f820116820180604052508101906114179190611b70565b611456576040517f08c379a000000000000000000000000000000000000000000000000000000000815260040161144d90611bfa565b60405180910390fd5b8373ffffffffffffffffffffffffffffffffffffffff167f87e89185959f0ae518db71c49684bee6843aeeafbbc3117181d3b13dcd1289758260405161149c91906118f0565b60405180910390a25050506114af61164a565b50565b60036020528060005260406000206000915090505481565b6114d2611574565b600073ffffffffffffffffffffffffffffffffffffffff168173ffffffffffffffffffffffffffffffffffffffff16036115445760006040517f1e4fbdf700000000000000000000000000000000000000000000000000000000815260040161153b91906119fd565b60405180910390fd5b61154d81611653565b50565b7f000000000000000000000000000000000000000000000000000000000000000081565b61157c611717565b73ffffffffffffffffffffffffffffffffffffffff1661159a610dcb565b73ffffffffffffffffffffffffffffffffffffffff16146115f9576115bd611717565b6040517f118cdaa70000000000000000000000000000000000000000000000000000000081526004016115f091906119fd565b60405180910390fd5b565b600260015403611640576040517f08c379a000000000000000000000000000000000000000000000000000000000815260040161163790611e8c565b60405180910390fd5b6002600181905550565b60018081905550565b60008060009054906101000a900473ffffffffffffffffffffffffffffffffffffffff169050816000806101000a81548173ffffffffffffffffffffffffffffffffffffffff021916908373ffffffffffffffffffffffffffffffffffffffff1602179055508173ffffffffffffffffffffffffffffffffffffffff168173ffffffffffffffffffffffffffffffffffffffff167f8be0079c531659141344cd1fd0a4f28419497f9722a3daafe3b4186f6b6457e060405160405180910390a35050565b600033905090565b600080fd5b600073ffffffffffffffffffffffffffffffffffffffff82169050919050565b600061174f82611724565b9050919050565b61175f81611744565b811461176a57600080fd5b50565b60008135905061177c81611756565b92915050565b6000602082840312156117985761179761171f565b5b60006117a68482850161176d565b91505092915050565b6000819050919050565b6117c2816117af565b81146117cd57600080fd5b50565b6000813590506117df816117b9565b92915050565b600060ff82169050919050565b6117fb816117e5565b811461180657600080fd5b50565b600081359050611818816117f2565b92915050565b6000819050919050565b6118318161181e565b811461183c57600080fd5b50565b60008135905061184e81611828565b92915050565b60008060008060008060c087890312156118715761187061171f565b5b600061187f89828a0161176d565b965050602061189089828a016117d0565b95505060406118a189828a016117d0565b94505060606118b289828a01611809565b93505060806118c389828a0161183f565b92505060a06118d489828a0161183f565b9150509295509295509295565b6118ea816117af565b82525050565b600060208201905061190560008301846118e1565b92915050565b6000602082840312156119215761192061171f565b5b600061192f848285016117d0565b91505092915050565b600080600080600080600080610100898b0312156119595761195861171f565b5b60006119678b828c0161176d565b98505060206119788b828c016117d0565b97505060406119898b828c016117d0565b965050606061199a8b828c01611809565b95505060806119ab8b828c0161183f565b94505060a06119bc8b828c0161183f565b93505060c06119cd8b828c0161176d565b92505060e06119de8b828c016117d0565b9150509295985092959890939650565b6119f781611744565b82525050565b6000602082019050611a1260008301846119ee565b92915050565b60008115159050919050565b611a2d81611a18565b82525050565b6000602082019050611a486000830184611a24565b92915050565b600080600060608486031215611a6757611a6661171f565b5b6000611a758682870161176d565b9350506020611a868682870161176d565b9250506040611a97868287016117d0565b9150509250925092565b6000819050919050565b6000611ac6611ac1611abc84611724565b611aa1565b611724565b9050919050565b6000611ad882611aab565b9050919050565b6000611aea82611acd565b9050919050565b611afa81611adf565b82525050565b6000602082019050611b156000830184611af1565b92915050565b6000604082019050611b3060008301856119ee565b611b3d60208301846118e1565b9392505050565b611b4d81611a18565b8114611b5857600080fd5b50565b600081519050611b6a81611b44565b92915050565b600060208284031215611b8657611b8561171f565b5b6000611b9484828501611b5b565b91505092915050565b600082825260208201905092915050565b7f5472616e73666572206661696c65640000000000000000000000000000000000600082015250565b6000611be4600f83611b9d565b9150611bef82611bae565b602082019050919050565b60006020820190508181036000830152611c1381611bd7565b9050919050565b611c23816117e5565b82525050565b611c328161181e565b82525050565b600060e082019050611c4d600083018a6119ee565b611c5a60208301896119ee565b611c6760408301886118e1565b611c7460608301876118e1565b611c816080830186611c1a565b611c8e60a0830185611c29565b611c9b60c0830184611c29565b98975050505050505050565b6000606082019050611cbc60008301866119ee565b611cc960208301856119ee565b611cd660408301846118e1565b949350505050565b7f4e487b7100000000000000000000000000000000000000000000000000000000600052601160045260246000fd5b6000611d18826117af565b9150611d23836117af565b9250828201905080821115611d3b57611d3a611cde565b5b92915050565b6000611d4c826117af565b9150611d57836117af565b9250828202611d65816117af565b91508282048414831517611d7c57611d7b611cde565b5b5092915050565b7f4e487b7100000000000000000000000000000000000000000000000000000000600052601260045260246000fd5b6000611dbd826117af565b9150611dc8836117af565b925082611dd857611dd7611d83565b5b828204905092915050565b6000611dee826117af565b9150611df9836117af565b9250828203905081811115611e1157611e10611cde565b5b92915050565b6000604082019050611e2c60008301856118e1565b611e3960208301846118e1565b9392505050565b7f5265656e7472616e637947756172643a207265656e7472616e742063616c6c00600082015250565b6000611e76601f83611b9d565b9150611e8182611e40565b602082019050919050565b60006020820190508181036000830152611ea581611e69565b905091905056fea264697066735822122047b3a7f12c90d8eab10d476600d0fba9e5fa73af5e2064482c1be5af110b77b764736f6c634300081c0033",
  "linkReferences": {},
  "deployedLinkReferences": {}
}